{
  "_format": "hh-sol-artifact-1",
  "contractName": "Receptor",
  "sourceName": "contracts/Receptor.sol",
  "abi": [
    {
      "stateMutability": "payable",
      "type": "fallback"
    },
    {
      "inputs": [],
      "name": "deposit",
      "outputs": [],
      "stateMutability": "payable",
      "type": "function"
    },
    {
      "inputs": [],
      "name": "encode",
      "outputs": [
        {
          "internalType": "bytes",
          "name": "",
          "type": "bytes"
        }
      ],
      "stateMutability": "pure",
      "type": "function"
    },
    {
      "inputs": [],
      "name": "lastCalledFunction",
      "outputs": [
        {
          "internalType": "string",
          "name": "",
          "type": "string"
        }
      ],
      "stateMutability": "view",
      "type": "function"
    },
    {
      "stateMutability": "payable",
      "type": "receive"
    }
  ],
  "bytecode": "0x6080604052348015600f57600080fd5b506106fe8061001f6000396000f3fe6080604052600436106100385760003560e01c806322844fbc146100c9578063bd14598f146100f4578063d0e30db01461011f57610083565b36610083576040518060400160405280600781526020017f72656365697665000000000000000000000000000000000000000000000000008152506000908161008191906104d8565b005b6040518060400160405280600881526020017f66616c6c6261636b000000000000000000000000000000000000000000000000815250600090816100c791906104d8565b005b3480156100d557600080fd5b506100de610129565b6040516100eb919061062f565b60405180910390f35b34801561010057600080fd5b506101096101b7565b60405161011691906106a6565b60405180910390f35b610127610241565b005b60008054610136906102f1565b80601f0160208091040260200160405190810160405280929190818152602001828054610162906102f1565b80156101af5780601f10610184576101008083540402835291602001916101af565b820191906000526020600020905b81548152906001019060200180831161019257829003601f168201915b505050505081565b60606040516024016040516020818303038152906040527fd0e30db0000000000000000000000000000000000000000000000000000000007bffffffffffffffffffffffffffffffffffffffffffffffffffffffff19166020820180517bffffffffffffffffffffffffffffffffffffffffffffffffffffffff8381831617835250505050905090565b6040518060400160405280600781526020017f6465706f736974000000000000000000000000000000000000000000000000008152506000908161028591906104d8565b50565b600081519050919050565b7f4e487b7100000000000000000000000000000000000000000000000000000000600052604160045260246000fd5b7f4e487b7100000000000000000000000000000000000000000000000000000000600052602260045260246000fd5b6000600282049050600182168061030957607f821691505b60208210810361031c5761031b6102c2565b5b50919050565b60008190508160005260206000209050919050565b60006020601f8301049050919050565b600082821b905092915050565b6000600883026103847fffffffffffffffffffffffffffffffffffffffffffffffffffffffffffffffff82610347565b61038e8683610347565b95508019841693508086168417925050509392505050565b6000819050919050565b6000819050919050565b60006103d56103d06103cb846103a6565b6103b0565b6103a6565b9050919050565b6000819050919050565b6103ef836103ba565b6104036103fb826103dc565b848454610354565b825550505050565b600090565b61041861040b565b6104238184846103e6565b505050565b5b818110156104475761043c600082610410565b600181019050610429565b5050565b601f82111561048c5761045d81610322565b61046684610337565b81016020851015610475578190505b61048961048185610337565b830182610428565b50505b505050565b600082821c905092915050565b60006104af60001984600802610491565b1980831691505092915050565b60006104c8838361049e565b9150826002028217905092915050565b6104e182610288565b67ffffffffffffffff8111156104fa576104f9610293565b5b61050482546102f1565b61050f82828561044b565b600060209050601f8311600181146105425760008415610530578287015190505b61053a85826104bc565b8655506105a2565b601f19841661055086610322565b60005b8281101561057857848901518255600182019150602085019450602081019050610553565b868310156105955784890151610591601f89168261049e565b8355505b6001600288020188555050505b505050505050565b600082825260208201905092915050565b60005b838110156105d95780820151818401526020810190506105be565b60008484015250505050565b6000601f19601f8301169050919050565b600061060182610288565b61060b81856105aa565b935061061b8185602086016105bb565b610624816105e5565b840191505092915050565b6000602082019050818103600083015261064981846105f6565b905092915050565b600081519050919050565b600082825260208201905092915050565b600061067882610651565b610682818561065c565b93506106928185602086016105bb565b61069b816105e5565b840191505092915050565b600060208201905081810360008301526106c0818461066d565b90509291505056fea26469706673582212204a7c4321b9ffd5aeb66233b35c2d476434b8694fd8e0736cd82b15b7f9642ceb64736f6c634300081c0033",
  "linkReferences": {},
  "deployedLinkReferences": {}
}