{
  "_format": "hh-sol-artifact-1",
  "contractName": "Auction",
  "sourceName": "contracts/Auction.sol",
  "abi": [
    {
      "inputs": [
        {
          "internalType": "uint256",
          "name": "_durationInMinutes",
          "type": "uint256"
        }
      ],
      "stateMutability": "nonpayable",
      "type": "constructor"
    },
    {
      "anonymous": false,
      "inputs": [
        {
          "indexed": true,
          "internalType": "address",
          "name": "winner",
          "type": "address"
        },
        {
          "indexed": false,
          "internalType": "uint256",
          "name": "winningAmount",
          "type": "uint256"
        }
      ],
      "name": "AuctionEnded",
      "type": "event"
    },
    {
      "anonymous": false,
      "inputs": [
        {
          "indexed": true,
          "internalType": "address",
          "name": "bidder",
          "type": "address"
        },
        {
          "indexed": false,
          "internalType": "uint256",
          "name": "amount",
          "type": "uint256"
        }
      ],
      "name": "DepositRefunded",
      "type": "event"
    },
    {
      "anonymous": false,
      "inputs": [
        {
          "indexed": true,
          "internalType": "address",
          "name": "bidder",
          "type": "address"
        },
        {
          "indexed": false,
          "internalType": "uint256",
          "name": "amount",
          "type": "uint256"
        }
      ],
      "name": "NewBid",
      "type": "event"
    },
    {
      "anonymous": false,
      "inputs": [
        {
          "indexed": true,
          "internalType": "address",
          "name": "bidder",
          "type": "address"
        },
        {
          "indexed": false,
          "internalType": "uint256",
          "name": "amount",
          "type": "uint256"
        }
      ],
      "name": "PartialWithdrawal",
      "type": "event"
    },
    {
      "inputs": [],
      "name": "auctionEndTime",
      "outputs": [
        {
          "internalType": "uint256",
          "name": "",
          "type": "uint256"
        }
      ],
      "stateMutability": "view",
      "type": "function"
    },
    {
      "inputs": [],
      "name": "auctionEnded",
      "outputs": [
        {
          "internalType": "bool",
          "name": "",
          "type": "bool"
        }
      ],
      "stateMutability": "view",
      "type": "function"
    },
    {
      "inputs": [],
      "name": "bidIncreasePercent",
      "outputs": [
        {
          "internalType": "uint256",
          "name": "",
          "type": "uint256"
        }
      ],
      "stateMutability": "view",
      "type": "function"
    },
    {
      "inputs": [
        {
          "internalType": "uint256",
          "name": "",
          "type": "uint256"
        }
      ],
      "name": "bids",
      "outputs": [
        {
          "internalType": "address",
          "name": "bidder",
          "type": "address"
        },
        {
          "internalType": "uint256",
          "name": "amount",
          "type": "uint256"
        }
      ],
      "stateMutability": "view",
      "type": "function"
    },
    {
      "inputs": [],
      "name": "commissionRate",
      "outputs": [
        {
          "internalType": "uint256",
          "name": "",
          "type": "uint256"
        }
      ],
      "stateMutability": "view",
      "type": "function"
    },
    {
      "inputs": [
        {
          "internalType": "address",
          "name": "",
          "type": "address"
        }
      ],
      "name": "deposits",
      "outputs": [
        {
          "internalType": "uint256",
          "name": "",
          "type": "uint256"
        }
      ],
      "stateMutability": "view",
      "type": "function"
    },
    {
      "inputs": [],
      "name": "extensionTime",
      "outputs": [
        {
          "internalType": "uint256",
          "name": "",
          "type": "uint256"
        }
      ],
      "stateMutability": "view",
      "type": "function"
    },
    {
      "inputs": [],
      "name": "finalizeAuction",
      "outputs": [],
      "stateMutability": "nonpayable",
      "type": "function"
    },
    {
      "inputs": [],
      "name": "getAllBids",
      "outputs": [
        {
          "components": [
            {
              "internalType": "address",
              "name": "bidder",
              "type": "address"
            },
            {
              "internalType": "uint256",
              "name": "amount",
              "type": "uint256"
            }
          ],
          "internalType": "struct Auction.Bid[]",
          "name": "",
          "type": "tuple[]"
        }
      ],
      "stateMutability": "view",
      "type": "function"
    },
    {
      "inputs": [],
      "name": "getWinner",
      "outputs": [
        {
          "internalType": "address",
          "name": "",
          "type": "address"
        },
        {
          "internalType": "uint256",
          "name": "",
          "type": "uint256"
        }
      ],
      "stateMutability": "view",
      "type": "function"
    },
    {
      "inputs": [],
      "name": "initialDuration",
      "outputs": [
        {
          "internalType": "uint256",
          "name": "",
          "type": "uint256"
        }
      ],
      "stateMutability": "view",
      "type": "function"
    },
    {
      "inputs": [],
      "name": "owner",
      "outputs": [
        {
          "internalType": "address",
          "name": "",
          "type": "address"
        }
      ],
      "stateMutability": "view",
      "type": "function"
    },
    {
      "inputs": [],
      "name": "placeBid",
      "outputs": [],
      "stateMutability": "payable",
      "type": "function"
    },
    {
      "inputs": [],
      "name": "winner",
      "outputs": [
        {
          "internalType": "address",
          "name": "",
          "type": "address"
        }
      ],
      "stateMutability": "view",
      "type": "function"
    },
    {
      "inputs": [],
      "name": "winningBid",
      "outputs": [
        {
          "internalType": "uint256",
          "name": "",
          "type": "uint256"
        }
      ],
      "stateMutability": "view",
      "type": "function"
    },
    {
      "inputs": [],
      "name": "withdrawExcess",
      "outputs": [],
      "stateMutability": "nonpayable",
      "type": "function"
    },
    {
      "inputs": [
        {
          "internalType": "address",
          "name": "_destination",
          "type": "address"
        }
      ],
      "name": "withdrawMainBid",
      "outputs": [],
      "stateMutability": "nonpayable",
      "type": "function"
    }
  ],
  "bytecode": "0x60806040526005600355610258600455600260055534801561002057600080fd5b50604051612059380380612059833981810160405281019061004291906100ea565b336000806101000a81548173ffffffffffffffffffffffffffffffffffffffff021916908373ffffffffffffffffffffffffffffffffffffffff160217905550603c8161008f9190610146565b600281905550600254426100a39190610188565b600181905550506101bc565b600080fd5b6000819050919050565b6100c7816100b4565b81146100d257600080fd5b50565b6000815190506100e4816100be565b92915050565b600060208284031215610100576100ff6100af565b5b600061010e848285016100d5565b91505092915050565b7f4e487b7100000000000000000000000000000000000000000000000000000000600052601160045260246000fd5b6000610151826100b4565b915061015c836100b4565b925082820261016a816100b4565b9150828204841483151761018157610180610117565b5b5092915050565b6000610193826100b4565b915061019e836100b4565b92508282019050808211156101b6576101b5610117565b5b92915050565b611e8e806101cb6000396000f3fe6080604052600436106100fe5760003560e01c80638da5cb5b11610095578063dfbf53ae11610064578063dfbf53ae14610305578063ecfc7ecc14610330578063eeed1b261461033a578063f77282ab14610365578063fc7e286d1461037c576100fe565b80638da5cb5b1461026c5780638e7ea5b214610297578063b815a357146102c3578063c264a063146102ee576100fe565b8063740a0129116100d1578063740a0129146101c057806386433374146101eb5780638cf80438146102165780638d0f6da314610241576100fe565b806318f9f57b146101035780634423c5f11461012c5780634b449cba1461016a5780635ea1d6f814610195575b600080fd5b34801561010f57600080fd5b5061012a60048036038101906101259190611519565b6103b9565b005b34801561013857600080fd5b50610153600480360381019061014e919061157c565b610514565b6040516101619291906115c7565b60405180910390f35b34801561017657600080fd5b5061017f610568565b60405161018c91906115f0565b60405180910390f35b3480156101a157600080fd5b506101aa61056e565b6040516101b791906115f0565b60405180910390f35b3480156101cc57600080fd5b506101d5610574565b6040516101e291906115f0565b60405180910390f35b3480156101f757600080fd5b5061020061057a565b60405161020d9190611626565b60405180910390f35b34801561022257600080fd5b5061022b61058d565b60405161023891906115f0565b60405180910390f35b34801561024d57600080fd5b50610256610593565b604051610263919061173d565b60405180910390f35b34801561027857600080fd5b50610281610652565b60405161028e919061175f565b60405180910390f35b3480156102a357600080fd5b506102ac610676565b6040516102ba9291906115c7565b60405180910390f35b3480156102cf57600080fd5b506102d86106f6565b6040516102e591906115f0565b60405180910390f35b3480156102fa57600080fd5b506103036106fc565b005b34801561031157600080fd5b5061031a610b85565b604051610327919061175f565b60405180910390f35b610338610bab565b005b34801561034657600080fd5b5061034f610f0c565b60405161035c91906115f0565b60405180910390f35b34801561037157600080fd5b5061037a610f12565b005b34801561038857600080fd5b506103a3600480360381019061039e9190611519565b61149e565b6040516103b091906115f0565b60405180910390f35b60008054906101000a900473ffffffffffffffffffffffffffffffffffffffff1673ffffffffffffffffffffffffffffffffffffffff163373ffffffffffffffffffffffffffffffffffffffff1614610447576040517f08c379a000000000000000000000000000000000000000000000000000000000815260040161043e906117fd565b60405180910390fd5b600760009054906101000a900460ff16610496576040517f08c379a000000000000000000000000000000000000000000000000000000000815260040161048d90611869565b60405180910390fd5b600060646005546008546104aa91906118b8565b6104b49190611929565b90506000816008546104c6919061195a565b90508273ffffffffffffffffffffffffffffffffffffffff166108fc829081150290604051600060405180830381858888f1935050505015801561050e573d6000803e3d6000fd5b50505050565b6006818154811061052457600080fd5b90600052602060002090600202016000915090508060000160009054906101000a900473ffffffffffffffffffffffffffffffffffffffff16908060010154905082565b60015481565b60055481565b60035481565b600760009054906101000a900460ff1681565b60085481565b60606006805480602002602001604051908101604052809291908181526020016000905b8282101561064957838290600052602060002090600202016040518060400160405290816000820160009054906101000a900473ffffffffffffffffffffffffffffffffffffffff1673ffffffffffffffffffffffffffffffffffffffff1673ffffffffffffffffffffffffffffffffffffffff168152602001600182015481525050815260200190600101906105b7565b50505050905090565b60008054906101000a900473ffffffffffffffffffffffffffffffffffffffff1681565b600080600760009054906101000a900460ff166106c8576040517f08c379a00000000000000000000000000000000000000000000000000000000081526004016106bf90611869565b60405180910390fd5b600760019054906101000a900473ffffffffffffffffffffffffffffffffffffffff16600854915091509091565b60025481565b6000600960003373ffffffffffffffffffffffffffffffffffffffff1673ffffffffffffffffffffffffffffffffffffffff168152602001908152602001600020541161077e576040517f08c379a0000000000000000000000000000000000000000000000000000000008152600401610775906119da565b60405180910390fd5b6000600760009054906101000a900460ff166109925760008060068054905090505b6000811115610879573373ffffffffffffffffffffffffffffffffffffffff1660066001836107cf919061195a565b815481106107e0576107df6119fa565b5b906000526020600020906002020160000160009054906101000a900473ffffffffffffffffffffffffffffffffffffffff1673ffffffffffffffffffffffffffffffffffffffff160361086657600660018261083c919061195a565b8154811061084d5761084c6119fa565b5b9060005260206000209060020201600101549150610879565b808061087190611a29565b9150506107a0565b5080600960003373ffffffffffffffffffffffffffffffffffffffff1673ffffffffffffffffffffffffffffffffffffffff16815260200190815260200160002054116108fb576040517f08c379a00000000000000000000000000000000000000000000000000000000081526004016108f290611a9e565b60405180910390fd5b80600960003373ffffffffffffffffffffffffffffffffffffffff1673ffffffffffffffffffffffffffffffffffffffff16815260200190815260200160002054610946919061195a565b915080600960003373ffffffffffffffffffffffffffffffffffffffff1673ffffffffffffffffffffffffffffffffffffffff1681526020019081526020016000208190555050610aed565b600760019054906101000a900473ffffffffffffffffffffffffffffffffffffffff1673ffffffffffffffffffffffffffffffffffffffff163373ffffffffffffffffffffffffffffffffffffffff1603610a22576040517f08c379a0000000000000000000000000000000000000000000000000000000008152600401610a1990611b30565b60405180910390fd5b600960003373ffffffffffffffffffffffffffffffffffffffff1673ffffffffffffffffffffffffffffffffffffffff1681526020019081526020016000205490506000600960003373ffffffffffffffffffffffffffffffffffffffff1673ffffffffffffffffffffffffffffffffffffffff1681526020019081526020016000208190555060008111610aec576040517f08c379a0000000000000000000000000000000000000000000000000000000008152600401610ae3906119da565b60405180910390fd5b5b3373ffffffffffffffffffffffffffffffffffffffff166108fc829081150290604051600060405180830381858888f19350505050158015610b33573d6000803e3d6000fd5b503373ffffffffffffffffffffffffffffffffffffffff167f8468f8fa62fc679cf8165eab7662a1fa977705b501dd787e9ec07884885425f182604051610b7a91906115f0565b60405180910390a250565b600760019054906101000a900473ffffffffffffffffffffffffffffffffffffffff1681565b6001544210610bef576040517f08c379a0000000000000000000000000000000000000000000000000000000008152600401610be690611b9c565b60405180910390fd5b600760009054906101000a900460ff1615610c3f576040517f08c379a0000000000000000000000000000000000000000000000000000000008152600401610c3690611c08565b60405180910390fd5b3460006006805490501115610cf757600060646003546064610c619190611c28565b60066001600680549050610c75919061195a565b81548110610c8657610c856119fa565b5b906000526020600020906002020160010154610ca291906118b8565b610cac9190611929565b905080821015610cf1576040517f08c379a0000000000000000000000000000000000000000000000000000000008152600401610ce890611cce565b60405180910390fd5b50610d3b565b60008111610d3a576040517f08c379a0000000000000000000000000000000000000000000000000000000008152600401610d3190611d60565b60405180910390fd5b5b600060405180604001604052803373ffffffffffffffffffffffffffffffffffffffff168152602001348152509050600681908060018154018082558091505060019003906000526020600020906002020160009091909190915060008201518160000160006101000a81548173ffffffffffffffffffffffffffffffffffffffff021916908373ffffffffffffffffffffffffffffffffffffffff16021790555060208201518160010155505033600760016101000a81548173ffffffffffffffffffffffffffffffffffffffff021916908373ffffffffffffffffffffffffffffffffffffffff16021790555034600881905550600454600154610e41919061195a565b421115610e645760045460016000828254610e5c9190611c28565b925050819055505b34600960003373ffffffffffffffffffffffffffffffffffffffff1673ffffffffffffffffffffffffffffffffffffffff1681526020019081526020016000206000828254610eb39190611c28565b925050819055503373ffffffffffffffffffffffffffffffffffffffff167fdd0b6c6a77960e2066c96171b4d7ac9e8b4c184011f38544afa36a5bb63ec59f34604051610f0091906115f0565b60405180910390a25050565b60045481565b60008054906101000a900473ffffffffffffffffffffffffffffffffffffffff1673ffffffffffffffffffffffffffffffffffffffff163373ffffffffffffffffffffffffffffffffffffffff1614610fa0576040517f08c379a0000000000000000000000000000000000000000000000000000000008152600401610f97906117fd565b60405180910390fd5b600154421015610fe5576040517f08c379a0000000000000000000000000000000000000000000000000000000008152600401610fdc90611dcc565b60405180910390fd5b600760009054906101000a900460ff1615611035576040517f08c379a000000000000000000000000000000000000000000000000000000000815260040161102c90611c08565b60405180910390fd5b60006006805490501161107d576040517f08c379a000000000000000000000000000000000000000000000000000000000815260040161107490611e38565b60405180910390fd5b6001600760006101000a81548160ff021916908315150217905550600660016006805490506110ac919061195a565b815481106110bd576110bc6119fa565b5b906000526020600020906002020160000160009054906101000a900473ffffffffffffffffffffffffffffffffffffffff16600760016101000a81548173ffffffffffffffffffffffffffffffffffffffff021916908373ffffffffffffffffffffffffffffffffffffffff16021790555060066001600680549050611143919061195a565b81548110611154576111536119fa565b5b9060005260206000209060020201600101546008819055506000606460055460085461118091906118b8565b61118a9190611929565b905060008054906101000a900473ffffffffffffffffffffffffffffffffffffffff1673ffffffffffffffffffffffffffffffffffffffff166108fc829081150290604051600060405180830381858888f193505050501580156111f2573d6000803e3d6000fd5b5060005b60068054905081101561141d57600060068281548110611219576112186119fa565b5b906000526020600020906002020160000160009054906101000a900473ffffffffffffffffffffffffffffffffffffffff169050600760019054906101000a900473ffffffffffffffffffffffffffffffffffffffff1673ffffffffffffffffffffffffffffffffffffffff168173ffffffffffffffffffffffffffffffffffffffff16141580156112ea57506000600960008373ffffffffffffffffffffffffffffffffffffffff1673ffffffffffffffffffffffffffffffffffffffff16815260200190815260200160002054115b1561140f576000600960008373ffffffffffffffffffffffffffffffffffffffff1673ffffffffffffffffffffffffffffffffffffffff1681526020019081526020016000205490506000600960008473ffffffffffffffffffffffffffffffffffffffff1673ffffffffffffffffffffffffffffffffffffffff168152602001908152602001600020819055508173ffffffffffffffffffffffffffffffffffffffff166108fc829081150290604051600060405180830381858888f193505050501580156113be573d6000803e3d6000fd5b508173ffffffffffffffffffffffffffffffffffffffff167f698270f63d8b673ed55a5ca00d14001bd808b390dbe11d5b1b16624863f71f778260405161140591906115f0565b60405180910390a2505b5080806001019150506111f6565b50600760019054906101000a900473ffffffffffffffffffffffffffffffffffffffff1673ffffffffffffffffffffffffffffffffffffffff167fdaec4582d5d9595688c8c98545fdd1c696d41c6aeaeb636737e84ed2f5c00eda82600854611486919061195a565b60405161149391906115f0565b60405180910390a250565b60096020528060005260406000206000915090505481565b600080fd5b600073ffffffffffffffffffffffffffffffffffffffff82169050919050565b60006114e6826114bb565b9050919050565b6114f6816114db565b811461150157600080fd5b50565b600081359050611513816114ed565b92915050565b60006020828403121561152f5761152e6114b6565b5b600061153d84828501611504565b91505092915050565b6000819050919050565b61155981611546565b811461156457600080fd5b50565b60008135905061157681611550565b92915050565b600060208284031215611592576115916114b6565b5b60006115a084828501611567565b91505092915050565b6115b2816114db565b82525050565b6115c181611546565b82525050565b60006040820190506115dc60008301856115a9565b6115e960208301846115b8565b9392505050565b600060208201905061160560008301846115b8565b92915050565b60008115159050919050565b6116208161160b565b82525050565b600060208201905061163b6000830184611617565b92915050565b600081519050919050565b600082825260208201905092915050565b6000819050602082019050919050565b611676816114db565b82525050565b61168581611546565b82525050565b6040820160008201516116a1600085018261166d565b5060208201516116b4602085018261167c565b50505050565b60006116c6838361168b565b60408301905092915050565b6000602082019050919050565b60006116ea82611641565b6116f4818561164c565b93506116ff8361165d565b8060005b8381101561173057815161171788826116ba565b9750611722836116d2565b925050600181019050611703565b5085935050505092915050565b6000602082019050818103600083015261175781846116df565b905092915050565b600060208201905061177460008301846115a9565b92915050565b600082825260208201905092915050565b7f536f6c6f20656c2070726f706965746172696f20707565646520656a6563757460008201527f617220657374612066756e63696f6e0000000000000000000000000000000000602082015250565b60006117e7602f8361177a565b91506117f28261178b565b604082019050919050565b60006020820190508181036000830152611816816117da565b9050919050565b7f4c612073756261737461206e6f2068612066696e616c697a61646f0000000000600082015250565b6000611853601b8361177a565b915061185e8261181d565b602082019050919050565b6000602082019050818103600083015261188281611846565b9050919050565b7f4e487b7100000000000000000000000000000000000000000000000000000000600052601160045260246000fd5b60006118c382611546565b91506118ce83611546565b92508282026118dc81611546565b915082820484148315176118f3576118f2611889565b5b5092915050565b7f4e487b7100000000000000000000000000000000000000000000000000000000600052601260045260246000fd5b600061193482611546565b915061193f83611546565b92508261194f5761194e6118fa565b5b828204905092915050565b600061196582611546565b915061197083611546565b925082820390508181111561198857611987611889565b5b92915050565b7f4e6f2068617920666f6e646f7320612072657469726172000000000000000000600082015250565b60006119c460178361177a565b91506119cf8261198e565b602082019050919050565b600060208201905081810360008301526119f3816119b7565b9050919050565b7f4e487b7100000000000000000000000000000000000000000000000000000000600052603260045260246000fd5b6000611a3482611546565b915060008203611a4757611a46611889565b5b600182039050919050565b7f4e6f206861792065786365736f20612072657469726172000000000000000000600082015250565b6000611a8860178361177a565b9150611a9382611a52565b602082019050919050565b60006020820190508181036000830152611ab781611a7b565b9050919050565b7f456c2067616e61646f72206e6f2070756564652072657469726172206578636560008201527f736f000000000000000000000000000000000000000000000000000000000000602082015250565b6000611b1a60228361177a565b9150611b2582611abe565b604082019050919050565b60006020820190508181036000830152611b4981611b0d565b9050919050565b7f4c612073756261737461206861207465726d696e61646f000000000000000000600082015250565b6000611b8660178361177a565b9150611b9182611b50565b602082019050919050565b60006020820190508181036000830152611bb581611b79565b9050919050565b7f4c612073756261737461207961206675652066696e616c697a61646100000000600082015250565b6000611bf2601c8361177a565b9150611bfd82611bbc565b602082019050919050565b60006020820190508181036000830152611c2181611be5565b9050919050565b6000611c3382611546565b9150611c3e83611546565b9250828201905080821115611c5657611c55611889565b5b92915050565b7f4f666572746120646562652073657220616c206d656e6f73203525206d61796f60008201527f722061206c61206d656a6f72206f666572746100000000000000000000000000602082015250565b6000611cb860338361177a565b9150611cc382611c5c565b604082019050919050565b60006020820190508181036000830152611ce781611cab565b9050919050565b7f4c61207072696d657261206f6665727461206465626520736572206d61796f7260008201527f2061206365726f00000000000000000000000000000000000000000000000000602082015250565b6000611d4a60278361177a565b9150611d5582611cee565b604082019050919050565b60006020820190508181036000830152611d7981611d3d565b9050919050565b7f4c61207375626173746120736967756520616374697661000000000000000000600082015250565b6000611db660178361177a565b9150611dc182611d80565b602082019050919050565b60006020820190508181036000830152611de581611da9565b9050919050565b7f4e6f20686179206f66657274617320706172612066696e616c697a6172000000600082015250565b6000611e22601d8361177a565b9150611e2d82611dec565b602082019050919050565b60006020820190508181036000830152611e5181611e15565b905091905056fea2646970667358221220db16989da7488400c895b3996d2f818c9f9c094287fd7d1b37e2e402e0cc660f64736f6c634300081c0033",
  "linkReferences": {},
  "deployedLinkReferences": {}
}