{
  "_format": "hh-sol-artifact-1",
  "contractName": "Donation",
  "sourceName": "contracts/Donations.sol",
  "abi": [
    {
      "inputs": [
        {
          "internalType": "address",
          "name": "_foundation",
          "type": "address"
        },
        {
          "internalType": "uint256",
          "name": "duration",
          "type": "uint256"
        }
      ],
      "stateMutability": "nonpayable",
      "type": "constructor"
    },
    {
      "inputs": [],
      "name": "claim",
      "outputs": [],
      "stateMutability": "nonpayable",
      "type": "function"
    }
  ],
  "bytecode": "0x608060405234801561001057600080fd5b506040516103fe3803806103fe83398181016040528101906100329190610125565b81600160006101000a81548173ffffffffffffffffffffffffffffffffffffffff021916908373ffffffffffffffffffffffffffffffffffffffff160217905550804261007f9190610194565b60008190555050506101c8565b600080fd5b600073ffffffffffffffffffffffffffffffffffffffff82169050919050565b60006100bc82610091565b9050919050565b6100cc816100b1565b81146100d757600080fd5b50565b6000815190506100e9816100c3565b92915050565b6000819050919050565b610102816100ef565b811461010d57600080fd5b50565b60008151905061011f816100f9565b92915050565b6000806040838503121561013c5761013b61008c565b5b600061014a858286016100da565b925050602061015b85828601610110565b9150509250929050565b7f4e487b7100000000000000000000000000000000000000000000000000000000600052601160045260246000fd5b600061019f826100ef565b91506101aa836100ef565b92508282019050808211156101c2576101c1610165565b5b92915050565b610227806101d76000396000f3fe608060405234801561001057600080fd5b506004361061002b5760003560e01c80634e71d92d14610030575b600080fd5b61003861003a565b005b600054421161004857600080fd5b600360009054906101000a900460ff161561006257600080fd5b6000600260003373ffffffffffffffffffffffffffffffffffffffff1673ffffffffffffffffffffffffffffffffffffffff16815260200190815260200160002054116100ae57600080fd5b60003373ffffffffffffffffffffffffffffffffffffffff16600260003373ffffffffffffffffffffffffffffffffffffffff1673ffffffffffffffffffffffffffffffffffffffff16815260200190815260200160002054604051610113906101dc565b60006040518083038185875af1925050503d8060008114610150576040519150601f19603f3d011682016040523d82523d6000602084013e610155565b606091505b505090508061016357600080fd5b6000600260003373ffffffffffffffffffffffffffffffffffffffff1673ffffffffffffffffffffffffffffffffffffffff1681526020019081526020016000208190555050565b600081905092915050565b50565b60006101c66000836101ab565b91506101d1826101b6565b600082019050919050565b60006101e7826101b9565b915081905091905056fea2646970667358221220fb5df790e4359a1843543ac196844460b5c739724aa94d2890b7df448a64bece64736f6c634300081c0033",
  "linkReferences": {},
  "deployedLinkReferences": {}
}